{
  "contractName": "TsukiBasic",
  "abi": [
    {
      "inputs": [],
      "stateMutability": "nonpayable",
      "type": "constructor"
    },
    {
      "anonymous": false,
      "inputs": [
        {
          "indexed": true,
          "internalType": "address",
          "name": "owner",
          "type": "address"
        },
        {
          "indexed": true,
          "internalType": "address",
          "name": "spender",
          "type": "address"
        },
        {
          "indexed": false,
          "internalType": "uint256",
          "name": "value",
          "type": "uint256"
        }
      ],
      "name": "Approval",
      "type": "event"
    },
    {
      "anonymous": false,
      "inputs": [
        {
          "indexed": true,
          "internalType": "address",
          "name": "previousOwner",
          "type": "address"
        },
        {
          "indexed": true,
          "internalType": "address",
          "name": "newOwner",
          "type": "address"
        }
      ],
      "name": "OwnershipTransferred",
      "type": "event"
    },
    {
      "anonymous": false,
      "inputs": [
        {
          "indexed": false,
          "internalType": "uint256",
          "name": "tokenSwapped",
          "type": "uint256"
        },
        {
          "indexed": false,
          "internalType": "uint256",
          "name": "ethReceived",
          "type": "uint256"
        },
        {
          "indexed": false,
          "internalType": "uint256",
          "name": "tokensIntoLiquidity",
          "type": "uint256"
        },
        {
          "indexed": false,
          "internalType": "uint256",
          "name": "contractTokenBalance",
          "type": "uint256"
        }
      ],
      "name": "SwapAndLiquify",
      "type": "event"
    },
    {
      "anonymous": false,
      "inputs": [
        {
          "indexed": true,
          "internalType": "address",
          "name": "from",
          "type": "address"
        },
        {
          "indexed": true,
          "internalType": "address",
          "name": "to",
          "type": "address"
        },
        {
          "indexed": false,
          "internalType": "uint256",
          "name": "value",
          "type": "uint256"
        }
      ],
      "name": "Transfer",
      "type": "event"
    },
    {
      "inputs": [],
      "name": "_maxTxAmount",
      "outputs": [
        {
          "internalType": "uint256",
          "name": "",
          "type": "uint256"
        }
      ],
      "stateMutability": "view",
      "type": "function"
    },
    {
      "inputs": [],
      "name": "_maxWalletToken",
      "outputs": [
        {
          "internalType": "uint256",
          "name": "",
          "type": "uint256"
        }
      ],
      "stateMutability": "view",
      "type": "function"
    },
    {
      "inputs": [],
      "name": "_numTokensSellToAddToLiquidity",
      "outputs": [
        {
          "internalType": "uint256",
          "name": "",
          "type": "uint256"
        }
      ],
      "stateMutability": "view",
      "type": "function"
    },
    {
      "inputs": [],
      "name": "_taxFee",
      "outputs": [
        {
          "internalType": "uint256",
          "name": "",
          "type": "uint256"
        }
      ],
      "stateMutability": "view",
      "type": "function"
    },
    {
      "inputs": [],
      "name": "owner",
      "outputs": [
        {
          "internalType": "address",
          "name": "",
          "type": "address"
        }
      ],
      "stateMutability": "view",
      "type": "function"
    },
    {
      "inputs": [],
      "name": "pcsV2Pair",
      "outputs": [
        {
          "internalType": "address",
          "name": "",
          "type": "address"
        }
      ],
      "stateMutability": "view",
      "type": "function"
    },
    {
      "inputs": [],
      "name": "pcsV2Router",
      "outputs": [
        {
          "internalType": "contract IPancakeRouter02",
          "name": "",
          "type": "address"
        }
      ],
      "stateMutability": "view",
      "type": "function"
    },
    {
      "inputs": [],
      "name": "renounceOwnership",
      "outputs": [],
      "stateMutability": "nonpayable",
      "type": "function"
    },
    {
      "inputs": [
        {
          "internalType": "address",
          "name": "newOwner",
          "type": "address"
        }
      ],
      "name": "transferOwnership",
      "outputs": [],
      "stateMutability": "nonpayable",
      "type": "function"
    },
    {
      "stateMutability": "payable",
      "type": "receive"
    },
    {
      "inputs": [],
      "name": "name",
      "outputs": [
        {
          "internalType": "string",
          "name": "",
          "type": "string"
        }
      ],
      "stateMutability": "view",
      "type": "function"
    },
    {
      "inputs": [],
      "name": "symbol",
      "outputs": [
        {
          "internalType": "string",
          "name": "",
          "type": "string"
        }
      ],
      "stateMutability": "view",
      "type": "function"
    },
    {
      "inputs": [],
      "name": "decimals",
      "outputs": [
        {
          "internalType": "uint8",
          "name": "",
          "type": "uint8"
        }
      ],
      "stateMutability": "view",
      "type": "function"
    },
    {
      "inputs": [],
      "name": "totalSupply",
      "outputs": [
        {
          "internalType": "uint256",
          "name": "",
          "type": "uint256"
        }
      ],
      "stateMutability": "view",
      "type": "function"
    },
    {
      "inputs": [
        {
          "internalType": "address",
          "name": "account",
          "type": "address"
        }
      ],
      "name": "balanceOf",
      "outputs": [
        {
          "internalType": "uint256",
          "name": "",
          "type": "uint256"
        }
      ],
      "stateMutability": "view",
      "type": "function"
    },
    {
      "inputs": [
        {
          "internalType": "address",
          "name": "recipient",
          "type": "address"
        },
        {
          "internalType": "uint256",
          "name": "amount",
          "type": "uint256"
        }
      ],
      "name": "transfer",
      "outputs": [
        {
          "internalType": "bool",
          "name": "",
          "type": "bool"
        }
      ],
      "stateMutability": "nonpayable",
      "type": "function"
    },
    {
      "inputs": [
        {
          "internalType": "address",
          "name": "owner",
          "type": "address"
        },
        {
          "internalType": "address",
          "name": "spender",
          "type": "address"
        }
      ],
      "name": "allowance",
      "outputs": [
        {
          "internalType": "uint256",
          "name": "",
          "type": "uint256"
        }
      ],
      "stateMutability": "view",
      "type": "function"
    },
    {
      "inputs": [
        {
          "internalType": "address",
          "name": "spender",
          "type": "address"
        },
        {
          "internalType": "uint256",
          "name": "amount",
          "type": "uint256"
        }
      ],
      "name": "approve",
      "outputs": [
        {
          "internalType": "bool",
          "name": "",
          "type": "bool"
        }
      ],
      "stateMutability": "nonpayable",
      "type": "function"
    },
    {
      "inputs": [
        {
          "internalType": "address",
          "name": "sender",
          "type": "address"
        },
        {
          "internalType": "address",
          "name": "recipient",
          "type": "address"
        },
        {
          "internalType": "uint256",
          "name": "amount",
          "type": "uint256"
        }
      ],
      "name": "transferFrom",
      "outputs": [
        {
          "internalType": "bool",
          "name": "",
          "type": "bool"
        }
      ],
      "stateMutability": "nonpayable",
      "type": "function"
    },
    {
      "inputs": [
        {
          "internalType": "address",
          "name": "spender",
          "type": "address"
        },
        {
          "internalType": "uint256",
          "name": "addedValue",
          "type": "uint256"
        }
      ],
      "name": "increaseAllowance",
      "outputs": [
        {
          "internalType": "bool",
          "name": "",
          "type": "bool"
        }
      ],
      "stateMutability": "nonpayable",
      "type": "function"
    },
    {
      "inputs": [
        {
          "internalType": "address",
          "name": "spender",
          "type": "address"
        },
        {
          "internalType": "uint256",
          "name": "subtractedValue",
          "type": "uint256"
        }
      ],
      "name": "decreaseAllowance",
      "outputs": [
        {
          "internalType": "bool",
          "name": "",
          "type": "bool"
        }
      ],
      "stateMutability": "nonpayable",
      "type": "function"
    },
    {
      "inputs": [],
      "name": "totalFees",
      "outputs": [
        {
          "internalType": "uint256",
          "name": "",
          "type": "uint256"
        }
      ],
      "stateMutability": "view",
      "type": "function"
    },
    {
      "inputs": [
        {
          "internalType": "uint256",
          "name": "tAmount",
          "type": "uint256"
        }
      ],
      "name": "reflect",
      "outputs": [],
      "stateMutability": "nonpayable",
      "type": "function"
    },
    {
      "inputs": [
        {
          "internalType": "uint256",
          "name": "tAmount",
          "type": "uint256"
        },
        {
          "internalType": "bool",
          "name": "deductTransferFee",
          "type": "bool"
        }
      ],
      "name": "reflectionFromToken",
      "outputs": [
        {
          "internalType": "uint256",
          "name": "",
          "type": "uint256"
        }
      ],
      "stateMutability": "view",
      "type": "function"
    },
    {
      "inputs": [
        {
          "internalType": "uint256",
          "name": "rAmount",
          "type": "uint256"
        }
      ],
      "name": "tokenFromReflection",
      "outputs": [
        {
          "internalType": "uint256",
          "name": "",
          "type": "uint256"
        }
      ],
      "stateMutability": "view",
      "type": "function"
    }
  ],
  "bytecode": "0x60c060405269152d02c7e14af6800000600019816200001a57fe5b06600019036006556040518060400160405280600981526020017f5473756b6920496e750000000000000000000000000000000000000000000000815250600890805190602001906200006f929190620005e9565b506040518060400160405280600581526020017f2453554b4900000000000000000000000000000000000000000000000000000081525060099080519060200190620000bd929190620005e9565b506009600a60006101000a81548160ff021916908360ff1602179055506008600b556006600c556816c4abbebea0100000600d55680b6255df5f50080000600e55683154c9729d05780000600f55426010553480156200011c57600080fd5b5060006200012f620005b860201b60201c565b9050806000806101000a81548173ffffffffffffffffffffffffffffffffffffffff021916908373ffffffffffffffffffffffffffffffffffffffff1602179055508073ffffffffffffffffffffffffffffffffffffffff16600073ffffffffffffffffffffffffffffffffffffffff167f8be0079c531659141344cd1fd0a4f28419497f9722a3daafe3b4186f6b6457e060405160405180910390a35060065460016000620001e4620005b860201b60201c565b73ffffffffffffffffffffffffffffffffffffffff1673ffffffffffffffffffffffffffffffffffffffff1681526020019081526020016000208190555060016004600062000238620005c060201b60201c565b73ffffffffffffffffffffffffffffffffffffffff1673ffffffffffffffffffffffffffffffffffffffff16815260200190815260200160002060006101000a81548160ff0219169083151502179055506001600460003073ffffffffffffffffffffffffffffffffffffffff1673ffffffffffffffffffffffffffffffffffffffff16815260200190815260200160002060006101000a81548160ff0219169083151502179055506000739ac64cc6e4415144c455bd8e4837fea55603e5c390508073ffffffffffffffffffffffffffffffffffffffff1663c45a01556040518163ffffffff1660e01b815260040160206040518083038186803b1580156200034157600080fd5b505afa15801562000356573d6000803e3d6000fd5b505050506040513d60208110156200036d57600080fd5b810190808051906020019092919050505073ffffffffffffffffffffffffffffffffffffffff1663c9c65396308373ffffffffffffffffffffffffffffffffffffffff1663ad5c46486040518163ffffffff1660e01b815260040160206040518083038186803b158015620003e157600080fd5b505afa158015620003f6573d6000803e3d6000fd5b505050506040513d60208110156200040d57600080fd5b81019080805190602001909291905050506040518363ffffffff1660e01b8152600401808373ffffffffffffffffffffffffffffffffffffffff1681526020018273ffffffffffffffffffffffffffffffffffffffff16815260200192505050602060405180830381600087803b1580156200048857600080fd5b505af11580156200049d573d6000803e3d6000fd5b505050506040513d6020811015620004b457600080fd5b810190808051906020019092919050505073ffffffffffffffffffffffffffffffffffffffff1660a08173ffffffffffffffffffffffffffffffffffffffff1660601b815250508073ffffffffffffffffffffffffffffffffffffffff1660808173ffffffffffffffffffffffffffffffffffffffff1660601b8152505062000542620005b860201b60201c565b73ffffffffffffffffffffffffffffffffffffffff16600073ffffffffffffffffffffffffffffffffffffffff167fddf252ad1be2c89b69c2b068fc378daa952ba7f163c4a11628f55a4df523b3ef69152d02c7e14af68000006040518082815260200191505060405180910390a3506200068f565b600033905090565b60008060009054906101000a900473ffffffffffffffffffffffffffffffffffffffff16905090565b828054600181600116156101000203166002900490600052602060002090601f016020900481019282601f106200062c57805160ff19168380011785556200065d565b828001600101855582156200065d579182015b828111156200065c5782518255916020019190600101906200063f565b5b5090506200066c919062000670565b5090565b5b808211156200068b57600081600090555060010162000671565b5090565b60805160601c60a05160601c612d49620006e160003980610dd6528061183c52806119a05280611ab2525080610b9f52806126e152806127cd52806127f452806128ff52806129265250612d496000f3fe60806040526004361061014f5760003560e01c806352143290116100b657806395d89b411161006f57806395d89b4114610687578063a457c2d714610717578063a9059cbb14610788578063b3f22ce3146107f9578063dd62ed3e14610824578063f2fde38b146108a957610156565b8063521432901461053357806370a0823114610574578063715018a6146105d957806378109e54146105f05780637d1db4a51461061b5780638da5cb5b1461064657610156565b80632d6abf87116101085780632d6abf871461037e5780632d838119146103bf578063313ce5671461040e578063395093511461043c5780633b124fe7146104ad5780634549b039146104d857610156565b8063053ab1821461015b57806306fdde0314610196578063095ea7b31461022657806313114a9d1461029757806318160ddd146102c257806323b872dd146102ed57610156565b3661015657005b600080fd5b34801561016757600080fd5b506101946004803603602081101561017e57600080fd5b81019080803590602001909291905050506108fa565b005b3480156101a257600080fd5b506101ab6109e8565b6040518080602001828103825283818151815260200191508051906020019080838360005b838110156101eb5780820151818401526020810190506101d0565b50505050905090810190601f1680156102185780820380516001836020036101000a031916815260200191505b509250505060405180910390f35b34801561023257600080fd5b5061027f6004803603604081101561024957600080fd5b81019080803573ffffffffffffffffffffffffffffffffffffffff16906020019092919080359060200190929190505050610a8a565b60405180821515815260200191505060405180910390f35b3480156102a357600080fd5b506102ac610aa8565b6040518082815260200191505060405180910390f35b3480156102ce57600080fd5b506102d7610ab2565b6040518082815260200191505060405180910390f35b3480156102f957600080fd5b506103666004803603606081101561031057600080fd5b81019080803573ffffffffffffffffffffffffffffffffffffffff169060200190929190803573ffffffffffffffffffffffffffffffffffffffff16906020019092919080359060200190929190505050610ac4565b60405180821515815260200191505060405180910390f35b34801561038a57600080fd5b50610393610b9d565b604051808273ffffffffffffffffffffffffffffffffffffffff16815260200191505060405180910390f35b3480156103cb57600080fd5b506103f8600480360360208110156103e257600080fd5b8101908080359060200190929190505050610bc1565b6040518082815260200191505060405180910390f35b34801561041a57600080fd5b50610423610c45565b604051808260ff16815260200191505060405180910390f35b34801561044857600080fd5b506104956004803603604081101561045f57600080fd5b81019080803573ffffffffffffffffffffffffffffffffffffffff16906020019092919080359060200190929190505050610c5c565b60405180821515815260200191505060405180910390f35b3480156104b957600080fd5b506104c2610d0f565b6040518082815260200191505060405180910390f35b3480156104e457600080fd5b5061051d600480360360408110156104fb57600080fd5b8101908080359060200190929190803515159060200190929190505050610d15565b6040518082815260200191505060405180910390f35b34801561053f57600080fd5b50610548610dd4565b604051808273ffffffffffffffffffffffffffffffffffffffff16815260200191505060405180910390f35b34801561058057600080fd5b506105c36004803603602081101561059757600080fd5b81019080803573ffffffffffffffffffffffffffffffffffffffff169060200190929190505050610df8565b6040518082815260200191505060405180910390f35b3480156105e557600080fd5b506105ee610e49565b005b3480156105fc57600080fd5b50610605610fcf565b6040518082815260200191505060405180910390f35b34801561062757600080fd5b50610630610fd5565b6040518082815260200191505060405180910390f35b34801561065257600080fd5b5061065b610fdb565b604051808273ffffffffffffffffffffffffffffffffffffffff16815260200191505060405180910390f35b34801561069357600080fd5b5061069c611004565b6040518080602001828103825283818151815260200191508051906020019080838360005b838110156106dc5780820151818401526020810190506106c1565b50505050905090810190601f1680156107095780820380516001836020036101000a031916815260200191505b509250505060405180910390f35b34801561072357600080fd5b506107706004803603604081101561073a57600080fd5b81019080803573ffffffffffffffffffffffffffffffffffffffff169060200190929190803590602001909291905050506110a6565b60405180821515815260200191505060405180910390f35b34801561079457600080fd5b506107e1600480360360408110156107ab57600080fd5b81019080803573ffffffffffffffffffffffffffffffffffffffff16906020019092919080359060200190929190505050611173565b60405180821515815260200191505060405180910390f35b34801561080557600080fd5b5061080e611191565b6040518082815260200191505060405180910390f35b34801561083057600080fd5b506108936004803603604081101561084757600080fd5b81019080803573ffffffffffffffffffffffffffffffffffffffff169060200190929190803573ffffffffffffffffffffffffffffffffffffffff169060200190929190505050611197565b6040518082815260200191505060405180910390f35b3480156108b557600080fd5b506108f8600480360360208110156108cc57600080fd5b81019080803573ffffffffffffffffffffffffffffffffffffffff16906020019092919050505061121e565b005b60006109046112f2565b90506000610911836112fa565b5050505050905061096a81600160008573ffffffffffffffffffffffffffffffffffffffff1673ffffffffffffffffffffffffffffffffffffffff1681526020019081526020016000205461135690919063ffffffff16565b600160008473ffffffffffffffffffffffffffffffffffffffff1673ffffffffffffffffffffffffffffffffffffffff168152602001908152602001600020819055506109c28160065461135690919063ffffffff16565b6006819055506109dd836007546113a090919063ffffffff16565b600781905550505050565b606060088054600181600116156101000203166002900480601f016020809104026020016040519081016040528092919081815260200182805460018160011615610100020316600290048015610a805780601f10610a5557610100808354040283529160200191610a80565b820191906000526020600020905b815481529060010190602001808311610a6357829003601f168201915b5050505050905090565b6000610a9e610a976112f2565b8484611428565b6001905092915050565b6000600754905090565b600069152d02c7e14af6800000905090565b6000610ad184848461161f565b610b9284610add6112f2565b610b8d85604051806060016040528060288152602001612c2060289139600360008b73ffffffffffffffffffffffffffffffffffffffff1673ffffffffffffffffffffffffffffffffffffffff1681526020019081526020016000206000610b436112f2565b73ffffffffffffffffffffffffffffffffffffffff1673ffffffffffffffffffffffffffffffffffffffff16815260200190815260200160002054611b2b9092919063ffffffff16565b611428565b600190509392505050565b7f000000000000000000000000000000000000000000000000000000000000000081565b6000600654821115610c1e576040517f08c379a000000000000000000000000000000000000000000000000000000000815260040180806020018281038252602a815260200180612b65602a913960400191505060405180910390fd5b6000610c28611beb565b9050610c3d8184611c1690919063ffffffff16565b915050919050565b6000600a60009054906101000a900460ff16905090565b6000610d05610c696112f2565b84610d008560036000610c7a6112f2565b73ffffffffffffffffffffffffffffffffffffffff1673ffffffffffffffffffffffffffffffffffffffff16815260200190815260200160002060008973ffffffffffffffffffffffffffffffffffffffff1673ffffffffffffffffffffffffffffffffffffffff168152602001908152602001600020546113a090919063ffffffff16565b611428565b6001905092915050565b600b5481565b600069152d02c7e14af6800000831115610d97576040517f08c379a000000000000000000000000000000000000000000000000000000000815260040180806020018281038252601f8152602001807f416d6f756e74206d757374206265206c657373207468616e20737570706c790081525060200191505060405180910390fd5b81610db7576000610da7846112fa565b5050505050905080915050610dce565b6000610dc2846112fa565b50505050915050809150505b92915050565b7f000000000000000000000000000000000000000000000000000000000000000081565b6000610e42600160008473ffffffffffffffffffffffffffffffffffffffff1673ffffffffffffffffffffffffffffffffffffffff16815260200190815260200160002054610bc1565b9050919050565b610e516112f2565b73ffffffffffffffffffffffffffffffffffffffff1660008054906101000a900473ffffffffffffffffffffffffffffffffffffffff1673ffffffffffffffffffffffffffffffffffffffff1614610f11576040517f08c379a00000000000000000000000000000000000000000000000000000000081526004018080602001828103825260208152602001807f4f776e61626c653a2063616c6c6572206973206e6f7420746865206f776e657281525060200191505060405180910390fd5b600073ffffffffffffffffffffffffffffffffffffffff1660008054906101000a900473ffffffffffffffffffffffffffffffffffffffff1673ffffffffffffffffffffffffffffffffffffffff167f8be0079c531659141344cd1fd0a4f28419497f9722a3daafe3b4186f6b6457e060405160405180910390a360008060006101000a81548173ffffffffffffffffffffffffffffffffffffffff021916908373ffffffffffffffffffffffffffffffffffffffff160217905550565b600f5481565b600d5481565b60008060009054906101000a900473ffffffffffffffffffffffffffffffffffffffff16905090565b606060098054600181600116156101000203166002900480601f01602080910402602001604051908101604052809291908181526020018280546001816001161561010002031660029004801561109c5780601f106110715761010080835404028352916020019161109c565b820191906000526020600020905b81548152906001019060200180831161107f57829003601f168201915b5050505050905090565b60006111696110b36112f2565b8461116485604051806060016040528060258152602001612cef60259139600360006110dd6112f2565b73ffffffffffffffffffffffffffffffffffffffff1673ffffffffffffffffffffffffffffffffffffffff16815260200190815260200160002060008a73ffffffffffffffffffffffffffffffffffffffff1673ffffffffffffffffffffffffffffffffffffffff16815260200190815260200160002054611b2b9092919063ffffffff16565b611428565b6001905092915050565b60006111876111806112f2565b848461161f565b6001905092915050565b600e5481565b6000600360008473ffffffffffffffffffffffffffffffffffffffff1673ffffffffffffffffffffffffffffffffffffffff16815260200190815260200160002060008373ffffffffffffffffffffffffffffffffffffffff1673ffffffffffffffffffffffffffffffffffffffff16815260200190815260200160002054905092915050565b6112266112f2565b73ffffffffffffffffffffffffffffffffffffffff1660008054906101000a900473ffffffffffffffffffffffffffffffffffffffff1673ffffffffffffffffffffffffffffffffffffffff16146112e6576040517f08c379a00000000000000000000000000000000000000000000000000000000081526004018080602001828103825260208152602001807f4f776e61626c653a2063616c6c6572206973206e6f7420746865206f776e657281525060200191505060405180910390fd5b6112ef81611c60565b50565b600033905090565b60008060008060008060008060006113118a611da3565b925092509250600080600061132f8d868661132a611beb565b611e6c565b9250925092508282828888889b509b509b509b509b509b5050505050505091939550919395565b600061139883836040518060400160405280601e81526020017f536166654d6174683a207375627472616374696f6e206f766572666c6f770000815250611b2b565b905092915050565b60008082840190508381101561141e576040517f08c379a000000000000000000000000000000000000000000000000000000000815260040180806020018281038252601b8152602001807f536166654d6174683a206164646974696f6e206f766572666c6f77000000000081525060200191505060405180910390fd5b8091505092915050565b600073ffffffffffffffffffffffffffffffffffffffff168373ffffffffffffffffffffffffffffffffffffffff1614156114ae576040517f08c379a0000000000000000000000000000000000000000000000000000000008152600401808060200182810382526024815260200180612ccb6024913960400191505060405180910390fd5b600073ffffffffffffffffffffffffffffffffffffffff168273ffffffffffffffffffffffffffffffffffffffff161415611534576040517f08c379a0000000000000000000000000000000000000000000000000000000008152600401808060200182810382526022815260200180612bb56022913960400191505060405180910390fd5b80600360008573ffffffffffffffffffffffffffffffffffffffff1673ffffffffffffffffffffffffffffffffffffffff16815260200190815260200160002060008473ffffffffffffffffffffffffffffffffffffffff1673ffffffffffffffffffffffffffffffffffffffff168152602001908152602001600020819055508173ffffffffffffffffffffffffffffffffffffffff168373ffffffffffffffffffffffffffffffffffffffff167f8c5be1e5ebec7d5bd14f71427d1e84f3dd0314c0f7b2291e5b200ac8c7c3b925836040518082815260200191505060405180910390a3505050565b600073ffffffffffffffffffffffffffffffffffffffff168373ffffffffffffffffffffffffffffffffffffffff1614156116a5576040517f08c379a0000000000000000000000000000000000000000000000000000000008152600401808060200182810382526025815260200180612ca66025913960400191505060405180910390fd5b600073ffffffffffffffffffffffffffffffffffffffff168273ffffffffffffffffffffffffffffffffffffffff16141561172b576040517f08c379a0000000000000000000000000000000000000000000000000000000008152600401808060200182810382526023815260200180612b426023913960400191505060405180910390fd5b60008111611784576040517f08c379a0000000000000000000000000000000000000000000000000000000008152600401808060200182810382526029815260200180612c7d6029913960400191505060405180910390fd5b61178c610fdb565b73ffffffffffffffffffffffffffffffffffffffff168373ffffffffffffffffffffffffffffffffffffffff16141580156117fa57506117ca610fdb565b73ffffffffffffffffffffffffffffffffffffffff168273ffffffffffffffffffffffffffffffffffffffff1614155b80156118335750600173ffffffffffffffffffffffffffffffffffffffff168273ffffffffffffffffffffffffffffffffffffffff1614155b801561188b57507f000000000000000000000000000000000000000000000000000000000000000073ffffffffffffffffffffffffffffffffffffffff168273ffffffffffffffffffffffffffffffffffffffff1614155b1561195757600d548111156118eb576040517f08c379a0000000000000000000000000000000000000000000000000000000008152600401808060200182810382526028815260200180612bd76028913960400191505060405180910390fd5b60006118f683610df8565b9050600f548282011115611955576040517f08c379a0000000000000000000000000000000000000000000000000000000008152600401808060200182810382526035815260200180612c486035913960400191505060405180910390fd5b505b600061196230610df8565b9050600d54811061197357600d5490505b6000600e5482101590508080156119975750600a60019054906101000a900460ff16155b80156119ef57507f000000000000000000000000000000000000000000000000000000000000000073ffffffffffffffffffffffffffffffffffffffff168573ffffffffffffffffffffffffffffffffffffffff1614155b15611a0357600e549150611a0282611ef5565b5b600060019050600460008773ffffffffffffffffffffffffffffffffffffffff1673ffffffffffffffffffffffffffffffffffffffff16815260200190815260200160002060009054906101000a900460ff1680611aaa5750600460008673ffffffffffffffffffffffffffffffffffffffff1673ffffffffffffffffffffffffffffffffffffffff16815260200190815260200160002060009054906101000a900460ff165b80611b0057507f000000000000000000000000000000000000000000000000000000000000000073ffffffffffffffffffffffffffffffffffffffff168673ffffffffffffffffffffffffffffffffffffffff16145b15611b0a57600090505b80611b1857611b17611fdf565b5b611b23868686612010565b505050505050565b6000838311158290611bd8576040517f08c379a00000000000000000000000000000000000000000000000000000000081526004018080602001828103825283818151815260200191508051906020019080838360005b83811015611b9d578082015181840152602081019050611b82565b50505050905090810190601f168015611bca5780820380516001836020036101000a031916815260200191505b509250505060405180910390fd5b5060008385039050809150509392505050565b6000806000611bf86121db565b91509150611c0f8183611c1690919063ffffffff16565b9250505090565b6000611c5883836040518060400160405280601a81526020017f536166654d6174683a206469766973696f6e206279207a65726f00000000000081525061248c565b905092915050565b600073ffffffffffffffffffffffffffffffffffffffff168173ffffffffffffffffffffffffffffffffffffffff161415611ce6576040517f08c379a0000000000000000000000000000000000000000000000000000000008152600401808060200182810382526026815260200180612b8f6026913960400191505060405180910390fd5b8073ffffffffffffffffffffffffffffffffffffffff1660008054906101000a900473ffffffffffffffffffffffffffffffffffffffff1673ffffffffffffffffffffffffffffffffffffffff167f8be0079c531659141344cd1fd0a4f28419497f9722a3daafe3b4186f6b6457e060405160405180910390a3806000806101000a81548173ffffffffffffffffffffffffffffffffffffffff021916908373ffffffffffffffffffffffffffffffffffffffff16021790555050565b600080600080611db1612552565b90506000611def82611de1600b54611dd360648b611c1690919063ffffffff16565b6125c590919063ffffffff16565b6125c590919063ffffffff16565b90506000611e2d83611e1f600c54611e1160648c611c1690919063ffffffff16565b6125c590919063ffffffff16565b6125c590919063ffffffff16565b90506000611e5682611e48858b61135690919063ffffffff16565b61135690919063ffffffff16565b9050808383965096509650505050509193909250565b600080600080611e8585896125c590919063ffffffff16565b90506000611e9c86896125c590919063ffffffff16565b90506000611eb387896125c590919063ffffffff16565b90506000611edc82611ece858761135690919063ffffffff16565b61135690919063ffffffff16565b9050838184965096509650505050509450945094915050565b6001600a60016101000a81548160ff0219169083151502179055506000611f26600283611c1690919063ffffffff16565b90506000611f3d828461135690919063ffffffff16565b90506000479050611f4d8361264b565b6000611f62824761135690919063ffffffff16565b9050611f6e83826128f9565b7f93efcf28fbf701a930e0ad258987a2e4f08eb3aa99f9c02029e7ba049f69405f848285886040518085815260200184815260200183815260200182815260200194505050505060405180910390a1505050506000600a60016101000a81548160ff02191690831515021790555050565b6000600b54148015611ff357506000600c54145b15611ffd5761200e565b6000600b819055506000600c819055505b565b600080600080600080612022876112fa565b95509550955095509550955061208086600160008c73ffffffffffffffffffffffffffffffffffffffff1673ffffffffffffffffffffffffffffffffffffffff1681526020019081526020016000205461135690919063ffffffff16565b600160008b73ffffffffffffffffffffffffffffffffffffffff1673ffffffffffffffffffffffffffffffffffffffff1681526020019081526020016000208190555061211585600160008b73ffffffffffffffffffffffffffffffffffffffff1673ffffffffffffffffffffffffffffffffffffffff168152602001908152602001600020546113a090919063ffffffff16565b600160008a73ffffffffffffffffffffffffffffffffffffffff1673ffffffffffffffffffffffffffffffffffffffff1681526020019081526020016000208190555061216181612a4a565b61216b8483612b07565b8773ffffffffffffffffffffffffffffffffffffffff168973ffffffffffffffffffffffffffffffffffffffff167fddf252ad1be2c89b69c2b068fc378daa952ba7f163c4a11628f55a4df523b3ef856040518082815260200191505060405180910390a3505050505050505050565b60008060006006549050600069152d02c7e14af6800000905060005b60058054905081101561243f5782600160006005848154811061221657fe5b9060005260206000200160009054906101000a900473ffffffffffffffffffffffffffffffffffffffff1673ffffffffffffffffffffffffffffffffffffffff1673ffffffffffffffffffffffffffffffffffffffff1681526020019081526020016000205411806122fd575081600260006005848154811061229557fe5b9060005260206000200160009054906101000a900473ffffffffffffffffffffffffffffffffffffffff1673ffffffffffffffffffffffffffffffffffffffff1673ffffffffffffffffffffffffffffffffffffffff16815260200190815260200160002054115b1561231c5760065469152d02c7e14af680000094509450505050612488565b6123a5600160006005848154811061233057fe5b9060005260206000200160009054906101000a900473ffffffffffffffffffffffffffffffffffffffff1673ffffffffffffffffffffffffffffffffffffffff1673ffffffffffffffffffffffffffffffffffffffff168152602001908152602001600020548461135690919063ffffffff16565b925061243060026000600584815481106123bb57fe5b9060005260206000200160009054906101000a900473ffffffffffffffffffffffffffffffffffffffff1673ffffffffffffffffffffffffffffffffffffffff1673ffffffffffffffffffffffffffffffffffffffff168152602001908152602001600020548361135690919063ffffffff16565b915080806001019150506121f7565b5061245f69152d02c7e14af6800000600654611c1690919063ffffffff16565b82101561247f5760065469152d02c7e14af6800000935093505050612488565b81819350935050505b9091565b60008083118290612538576040517f08c379a00000000000000000000000000000000000000000000000000000000081526004018080602001828103825283818151815260200191508051906020019080838360005b838110156124fd5780820151818401526020810190506124e2565b50505050905090810190601f16801561252a5780820380516001836020036101000a031916815260200191505b509250505060405180910390fd5b50600083858161254457fe5b049050809150509392505050565b600080601054420390506000610e10905080600c02821015612579576005925050506125c2565b8060180282101561258f576004925050506125c2565b806048028210156125a5576003925050506125c2565b8060a8028210156125bb576002925050506125c2565b6001925050505b90565b6000808314156125d85760009050612645565b60008284029050828482816125e957fe5b0414612640576040517f08c379a0000000000000000000000000000000000000000000000000000000008152600401808060200182810382526021815260200180612bff6021913960400191505060405180910390fd5b809150505b92915050565b6060600267ffffffffffffffff8111801561266557600080fd5b506040519080825280602002602001820160405280156126945781602001602082028036833780820191505090505b50905030816000815181106126a557fe5b602002602001019073ffffffffffffffffffffffffffffffffffffffff16908173ffffffffffffffffffffffffffffffffffffffff16815250507f000000000000000000000000000000000000000000000000000000000000000073ffffffffffffffffffffffffffffffffffffffff1663ad5c46486040518163ffffffff1660e01b815260040160206040518083038186803b15801561274557600080fd5b505afa158015612759573d6000803e3d6000fd5b505050506040513d602081101561276f57600080fd5b81019080805190602001909291905050508160018151811061278d57fe5b602002602001019073ffffffffffffffffffffffffffffffffffffffff16908173ffffffffffffffffffffffffffffffffffffffff16815250506127f2307f000000000000000000000000000000000000000000000000000000000000000084611428565b7f000000000000000000000000000000000000000000000000000000000000000073ffffffffffffffffffffffffffffffffffffffff1663791ac9478360008430426040518663ffffffff1660e01b815260040180868152602001858152602001806020018473ffffffffffffffffffffffffffffffffffffffff168152602001838152602001828103825285818151815260200191508051906020019060200280838360005b838110156128b4578082015181840152602081019050612899565b505050509050019650505050505050600060405180830381600087803b1580156128dd57600080fd5b505af11580156128f1573d6000803e3d6000fd5b505050505050565b612924307f000000000000000000000000000000000000000000000000000000000000000084611428565b7f000000000000000000000000000000000000000000000000000000000000000073ffffffffffffffffffffffffffffffffffffffff1663f305d71982308560008061296e610fdb565b426040518863ffffffff1660e01b8152600401808773ffffffffffffffffffffffffffffffffffffffff1681526020018681526020018581526020018481526020018373ffffffffffffffffffffffffffffffffffffffff16815260200182815260200196505050505050506060604051808303818588803b1580156129f357600080fd5b505af1158015612a07573d6000803e3d6000fd5b50505050506040513d6060811015612a1e57600080fd5b810190808051906020019092919080519060200190929190805190602001909291905050505050505050565b6000612a54611beb565b90506000612a6b82846125c590919063ffffffff16565b9050612abf81600160003073ffffffffffffffffffffffffffffffffffffffff1673ffffffffffffffffffffffffffffffffffffffff168152602001908152602001600020546113a090919063ffffffff16565b600160003073ffffffffffffffffffffffffffffffffffffffff1673ffffffffffffffffffffffffffffffffffffffff16815260200190815260200160002081905550505050565b612b1c8260065461135690919063ffffffff16565b600681905550612b37816007546113a090919063ffffffff16565b600781905550505056fe45524332303a207472616e7366657220746f20746865207a65726f2061646472657373416d6f756e74206d757374206265206c657373207468616e20746f74616c207265666c656374696f6e734f776e61626c653a206e6577206f776e657220697320746865207a65726f206164647265737345524332303a20617070726f766520746f20746865207a65726f20616464726573735472616e7366657220616d6f756e74206578636565647320746865206d61785478416d6f756e742e536166654d6174683a206d756c7469706c69636174696f6e206f766572666c6f7745524332303a207472616e7366657220616d6f756e74206578636565647320616c6c6f77616e636545786365656473206d6178696d756d2077616c6c657420746f6b656e20616d6f756e7420283931302c3030302c3030302c303030295472616e7366657220616d6f756e74206d7573742062652067726561746572207468616e207a65726f45524332303a207472616e736665722066726f6d20746865207a65726f206164647265737345524332303a20617070726f76652066726f6d20746865207a65726f206164647265737345524332303a2064656372656173656420616c6c6f77616e63652062656c6f77207a65726fa264697066735822122002deeacd41f6eeb1eb7321ab401c202037468b6cc325b3589655528be7e7fbb564736f6c634300060c0033",
  "immutableReferences": {
    "2819": [
      {
        "length": 32,
        "start": 2975
      },
      {
        "length": 32,
        "start": 9953
      },
      {
        "length": 32,
        "start": 10189
      },
      {
        "length": 32,
        "start": 10228
      },
      {
        "length": 32,
        "start": 10495
      },
      {
        "length": 32,
        "start": 10534
      }
    ],
    "2821": [
      {
        "length": 32,
        "start": 3542
      },
      {
        "length": 32,
        "start": 6204
      },
      {
        "length": 32,
        "start": 6560
      },
      {
        "length": 32,
        "start": 6834
      }
    ]
  },
  "source": "//SPDX-License-Identifier: Unlicensed;\npragma solidity ^0.6.12;\n/* 2% marketing wallet redirection from transferFrom\n    2% dev team wallet redirection from transferFrom\n    10% of all sales redistributed to tokenholders\n*/\nimport \"./Dependencies_bep20.sol\";\n\ncontract TsukiBasic is Context, IBEP20, Ownable {\n    using SafeMath for uint256;\n\n    mapping (address => uint256) private _rOwned;\n    mapping (address => uint256) private _tOwned;\n    mapping (address => mapping (address => uint256)) private _allowances;\n\n    mapping (address => bool) private _isExcludedFromFee;\n    address[] private _excluded;\n   \n    uint256 private constant MAX = ~uint256(0);\n    uint256 private constant _tTotal = 10 * 10**4 * 10**9 * 10**9; // 100 trillion\n    uint256 private _rTotal = (MAX - (MAX % _tTotal));\n    uint256 private _tFeeTotal;\n\n    string private _name = 'Tsuki Inu';\n    string private _symbol = '$SUKI';\n    uint8 private _decimals = 9;\n    bool inSwapAndLiquify;\n    uint256 public _taxFee = 8;\n    uint256 _liquidityFee = 6;\n    uint256 public _maxTxAmount = 420 * 10**9 * 10**9;// Max Transaction: 0.6%\n    uint256 public _numTokensSellToAddToLiquidity = 210 * 10**9 * 10**9;\n    uint256 public  _maxWalletToken = 910 * 10**9 * 10**9;// Max Wallet: 1.3%\n    \n    IPancakeRouter02 public immutable pcsV2Router;\n    address public immutable pcsV2Pair;\n    \n    uint256 private _start_timestamp = block.timestamp;\n    \n    event SwapAndLiquify(\n        uint256 tokenSwapped, \n        uint256 ethReceived,\n        uint256 tokensIntoLiquidity,\n        uint256 contractTokenBalance\n        );\n        \n            constructor() public {\n        _rOwned[_msgSender()] = _rTotal;\n        _isExcludedFromFee[owner()] = true;\n        _isExcludedFromFee[address(this)] = true;\n\n        IPancakeRouter02 _pancakeswapV2Router =\n            IPancakeRouter02(0x9Ac64Cc6e4415144C455BD8E4837Fea55603e5c3);\n        // Create a pancakeswap pair for this new token\n        pcsV2Pair = IPancakeFactory(_pancakeswapV2Router.factory()).createPair(\n            address(this),\n            _pancakeswapV2Router.WETH()\n        );\n        pcsV2Router = _pancakeswapV2Router;\n\n        emit Transfer(address(0), _msgSender(), _tTotal);\n    }\n\n    modifier lockTheSwap {\n        inSwapAndLiquify = true;\n        _;\n        inSwapAndLiquify = false;\n    }\n\n    function name() public view override returns (string memory) {\n        return _name;\n    }\n\n    function symbol() public view override returns (string memory) {\n        return _symbol;\n    }\n\n    function decimals() public view override returns (uint8) {\n        return _decimals;\n    }\n\n    function totalSupply() public view override returns (uint256) {\n        return _tTotal;\n    }\n\n    function balanceOf(address account) public view override returns (uint256) {\n        return tokenFromReflection(_rOwned[account]);\n    }\n\n    function transfer(address recipient, uint256 amount)\n        public\n        override\n        returns (bool)\n    {\n        _transfer(_msgSender(), recipient, amount);\n        return true;\n    }\n\n    function allowance(address owner, address spender)\n        public\n        view\n        override\n        returns (uint256)\n    {\n        return _allowances[owner][spender];\n    }\n\n    function approve(address spender, uint256 amount)\n        public\n        override\n        returns (bool)\n    {\n        _approve(_msgSender(), spender, amount);\n        return true;\n    }\n\n    function transferFrom(\n        address sender,\n        address recipient,\n        uint256 amount\n    ) public override returns (bool) {\n        _transfer(sender, recipient, amount);\n        _approve(\n            sender,\n            _msgSender(),\n            _allowances[sender][_msgSender()].sub(\n                amount,\n                \"ERC20: transfer amount exceeds allowance\"\n            )\n        );\n        return true;\n    }\n\n    function increaseAllowance(address spender, uint256 addedValue)\n        public\n        virtual\n        returns (bool)\n    {\n        _approve(\n            _msgSender(),\n            spender,\n            _allowances[_msgSender()][spender].add(addedValue)\n        );\n        return true;\n    }\n\n    function decreaseAllowance(address spender, uint256 subtractedValue)\n        public\n        virtual\n        returns (bool)\n    {\n        _approve(\n            _msgSender(),\n            spender,\n            _allowances[_msgSender()][spender].sub(\n                subtractedValue,\n                \"ERC20: decreased allowance below zero\"\n            )\n        );\n        return true;\n    }\n\n    function totalFees() public view returns (uint256) {\n        return _tFeeTotal;\n    }\n\n    function reflect(uint256 tAmount) public {\n        address sender = _msgSender();\n        (uint256 rAmount, , , , , ) = _getValues(tAmount);\n        _rOwned[sender] = _rOwned[sender].sub(rAmount);\n        _rTotal = _rTotal.sub(rAmount);\n        _tFeeTotal = _tFeeTotal.add(tAmount);\n    }\n\n    function reflectionFromToken(uint256 tAmount, bool deductTransferFee)\n        public\n        view\n        returns (uint256)\n    {\n        require(tAmount <= _tTotal, \"Amount must be less than supply\");\n        if (!deductTransferFee) {\n            (uint256 rAmount, , , , , ) = _getValues(tAmount);\n            return rAmount;\n        } else {\n            (, uint256 rTransferAmount, , , , ) = _getValues(tAmount);\n            return rTransferAmount;\n        }\n    }\n\n    function tokenFromReflection(uint256 rAmount)\n        public\n        view\n        returns (uint256)\n    {\n        require(\n            rAmount <= _rTotal,\n            \"Amount must be less than total reflections\"\n        );\n        uint256 currentRate = _getRate();\n        return rAmount.div(currentRate);\n    }\n\n    function _approve(\n        address owner,\n        address spender,\n        uint256 amount\n    ) private {\n        require(owner != address(0), \"ERC20: approve from the zero address\");\n        require(spender != address(0), \"ERC20: approve to the zero address\");\n\n        _allowances[owner][spender] = amount;\n        emit Approval(owner, spender, amount);\n    }\n\n    function removeAllFee() private {\n        if (_taxFee == 0 && _liquidityFee == 0) return;\n\n        _taxFee = 0;\n        _liquidityFee = 0;\n    }\n\n    function _transfer(\n        address sender,\n        address recipient,\n        uint256 amount\n    ) private {\n        require(sender != address(0), \"ERC20: transfer from the zero address\");\n        require(recipient != address(0), \"ERC20: transfer to the zero address\");\n        require(amount > 0, \"Transfer amount must be greater than zero\");\n        if (\n            sender != owner() &&\n            recipient != owner() &&\n            recipient != address(1) &&\n            recipient != pcsV2Pair\n        ) {\n            require(\n                amount <= _maxTxAmount,\n                \"Transfer amount exceeds the maxTxAmount.\"\n            );\n            uint256 contractBalanceRecepient = balanceOf(recipient);\n            require(\n                contractBalanceRecepient + amount <= _maxWalletToken,\n                \"Exceeds maximum wallet token amount (910,000,000,000)\"\n            );\n        }\n\n        // is the token balance of this contract address over the min number of\n        // tokens that we need to initiate a swap + liquidity lock?\n        // also, don't get caught in a circular liquidity event.\n        // also, don't swap & liquify if sender is uniswap pair.\n        uint256 contractTokenBalance = balanceOf(address(this));\n\n        if (contractTokenBalance >= _maxTxAmount) {\n            contractTokenBalance = _maxTxAmount;\n        }\n\n        bool overMinTokenBalance =\n            contractTokenBalance >= _numTokensSellToAddToLiquidity;\n        if (overMinTokenBalance && !inSwapAndLiquify && sender != pcsV2Pair) {\n            contractTokenBalance = _numTokensSellToAddToLiquidity;\n            swapAndLiquify(contractTokenBalance);\n        }\n\n        bool takeFee = true;\n\n        //if any account belongs to _isExcludedFromFee account then remove the fee\n        if (\n            _isExcludedFromFee[sender] ||\n            _isExcludedFromFee[recipient] ||\n            sender == pcsV2Pair\n        ) {\n            takeFee = false;\n        }\n\n        if (!takeFee) removeAllFee();\n\n        _transferStandard(sender, recipient, amount);\n\n    \n    }\n\n    function _transferStandard(\n        address sender,\n        address recipient,\n        uint256 tAmount\n    ) private {\n        (\n            uint256 rAmount,\n            uint256 rTransferAmount,\n            uint256 rFee,\n            uint256 tTransferAmount,\n            uint256 tFee,\n            uint256 tLiquidity\n        ) = _getValues(tAmount);\n        _rOwned[sender] = _rOwned[sender].sub(rAmount);\n        _rOwned[recipient] = _rOwned[recipient].add(rTransferAmount);\n        _takeLiquidity(tLiquidity);\n        _reflectFee(rFee, tFee);\n        emit Transfer(sender, recipient, tTransferAmount);\n    }\n\n    function _reflectFee(uint256 rFee, uint256 tFee) private {\n        _rTotal = _rTotal.sub(rFee);\n        _tFeeTotal = _tFeeTotal.add(tFee);\n    }\n\n    function _getValues(uint256 tAmount)\n        private\n        view\n        returns (\n            uint256,\n            uint256,\n            uint256,\n            uint256,\n            uint256,\n            uint256\n        )\n    {\n        (uint256 tTransferAmount, uint256 tFee, uint256 tLiquidity) =\n            _getTValues(tAmount);\n        (uint256 rAmount, uint256 rTransferAmount, uint256 rFee) =\n            _getRValues(tAmount, tFee, tLiquidity, _getRate());\n        return (\n            rAmount,\n            rTransferAmount,\n            rFee,\n            tTransferAmount,\n            tFee,\n            tLiquidity\n        );\n    }\n\n    function _getAntiDumpMultiplier() private view returns (uint256) {\n        uint256 time_since_start = block.timestamp - _start_timestamp;\n        uint256 hour = 60 * 60;\n        if (time_since_start < 12 * hour) {\n            return (5);\n        } else if (time_since_start < 24 * hour) {\n            return (4);\n        } else if (time_since_start < 72 * hour) {\n            return (3);\n        } else if (time_since_start < 168 * hour) {\n            return (2);\n        } else {\n            return (1);\n        }\n    }\n\n    function _getTValues(uint256 tAmount)\n        private\n        view\n        returns (\n            uint256,\n            uint256,\n            uint256\n        )\n    {\n        uint256 multiplier = _getAntiDumpMultiplier();\n        uint256 tFee = tAmount.div(10**2).mul(_taxFee).mul(multiplier);\n        uint256 tLiquidity =\n            tAmount.div(10**2).mul(_liquidityFee).mul(multiplier);\n        uint256 tTransferAmount = tAmount.sub(tFee).sub(tLiquidity);\n        return (tTransferAmount, tFee, tLiquidity);\n    }\n\n    function _getRValues(\n        uint256 tAmount,\n        uint256 tFee,\n        uint256 tLiquidity,\n        uint256 currentRate\n    )\n        private\n        pure\n        returns (\n            uint256,\n            uint256,\n            uint256\n        )\n    {\n        uint256 rAmount = tAmount.mul(currentRate);\n        uint256 rFee = tFee.mul(currentRate);\n        uint256 rLiquidity = tLiquidity.mul(currentRate);\n        uint256 rTransferAmount = rAmount.sub(rFee).sub(rLiquidity);\n        return (rAmount, rTransferAmount, rFee);\n    }\n\n    function _getRate() private view returns (uint256) {\n        (uint256 rSupply, uint256 tSupply) = _getCurrentSupply();\n        return rSupply.div(tSupply);\n    }\n\n    function _getCurrentSupply() private view returns (uint256, uint256) {\n        uint256 rSupply = _rTotal;\n        uint256 tSupply = _tTotal;\n        for (uint256 i = 0; i < _excluded.length; i++) {\n            if (\n                _rOwned[_excluded[i]] > rSupply ||\n                _tOwned[_excluded[i]] > tSupply\n            ) return (_rTotal, _tTotal);\n            rSupply = rSupply.sub(_rOwned[_excluded[i]]);\n            tSupply = tSupply.sub(_tOwned[_excluded[i]]);\n        }\n        if (rSupply < _rTotal.div(_tTotal)) return (_rTotal, _tTotal);\n        return (rSupply, tSupply);\n    }\n\n    function _takeLiquidity(uint256 tLiquidity) private {\n        uint256 currentRate = _getRate();\n        uint256 rLiquidity = tLiquidity.mul(currentRate);\n        _rOwned[address(this)] = _rOwned[address(this)].add(rLiquidity);\n    }\n\n    function swapAndLiquify(uint256 contractTokenBalance) private lockTheSwap {\n        // split the contract balance into halves\n        uint256 half = contractTokenBalance.div(2);\n        uint256 otherHalf = contractTokenBalance.sub(half);\n\n        // capture the contract's current BNB balance.\n        // this is so that we can capture exactly the amount of ETH that the\n        // swap creates, and not make the liquidity event include any ETH that\n        // has been manually sent to the contract\n        uint256 initialBalance = address(this).balance;\n\n        // swap tokens for BNB\n        swapTokensForBNB(half);\n\n        // how much BNB did we just swap into?\n        uint256 newBalance = address(this).balance.sub(initialBalance);\n\n        // add liquidity to uniswap\n        addLiquidity(otherHalf, newBalance);\n\n        emit SwapAndLiquify(half, newBalance, otherHalf, contractTokenBalance);\n    }\n\n    function swapTokensForBNB(uint256 tokenAmount) private {\n        // generate the uniswap pair path of token -> weth\n        address[] memory path = new address[](2);\n        path[0] = address(this);\n        path[1] = pcsV2Router.WETH();\n\n        _approve(address(this), address(pcsV2Router), tokenAmount);\n\n        // make the swap\n        pcsV2Router.swapExactTokensForETHSupportingFeeOnTransferTokens(\n            tokenAmount,\n            0, // accept any amount of ETH\n            path,\n            address(this),\n            block.timestamp\n        );\n    }\n\n    function addLiquidity(uint256 tokenAmount, uint256 ethAmount) private {\n        // approve token transfer to cover all possible scenarios\n        _approve(address(this), address(pcsV2Router), tokenAmount);\n\n        // add the liquidity\n        pcsV2Router.addLiquidityETH{value: ethAmount}(\n            address(this),\n            tokenAmount,\n            0, // slippage is unavoidable\n            0, // slippage is unavoidable\n            owner(),\n            block.timestamp\n        );\n    }\n\n    receive() external payable {}\n}",
  "sourcePath": "/home/thomascyriac/eth-bsc-bridge/contracts/tsuki_BEP20.sol",
  "compiler": {
    "name": "solc",
    "version": "0.6.12+commit.27d51765.Emscripten.clang"
  },
  "schemaVersion": "3.4.1",
  "updatedAt": "2021-05-31T17:15:36.832Z",
  "devdoc": {
    "kind": "dev",
    "methods": {
      "approve(address,uint256)": {
        "details": "Sets `amount` as the allowance of `spender` over the caller's tokens. Returns a boolean value indicating whether the operation succeeded. IMPORTANT: Beware that changing an allowance with this method brings the risk that someone may use both the old and the new allowance by unfortunate transaction ordering. One possible solution to mitigate this race condition is to first reduce the spender's allowance to 0 and set the desired value afterwards: https://github.com/ethereum/EIPs/issues/20#issuecomment-263524729 Emits an {Approval} event."
      },
      "balanceOf(address)": {
        "details": "Returns the amount of tokens owned by `account`."
      },
      "decimals()": {
        "details": "Returns the token decimals."
      },
      "name()": {
        "details": "Returns the token name."
      },
      "owner()": {
        "details": "Returns the address of the current owner."
      },
      "renounceOwnership()": {
        "details": "Leaves the contract without owner. It will not be possible to call `onlyOwner` functions anymore. Can only be called by the current owner. NOTE: Renouncing ownership will leave the contract without an owner, thereby removing any functionality that is only available to the owner."
      },
      "symbol()": {
        "details": "Returns the token symbol."
      },
      "totalSupply()": {
        "details": "Returns the amount of tokens in existence."
      },
      "transfer(address,uint256)": {
        "details": "Moves `amount` tokens from the caller's account to `recipient`. Returns a boolean value indicating whether the operation succeeded. Emits a {Transfer} event."
      },
      "transferFrom(address,address,uint256)": {
        "details": "Moves `amount` tokens from `sender` to `recipient` using the allowance mechanism. `amount` is then deducted from the caller's allowance. Returns a boolean value indicating whether the operation succeeded. Emits a {Transfer} event."
      },
      "transferOwnership(address)": {
        "details": "Transfers ownership of the contract to a new account (`newOwner`). Can only be called by the current owner."
      }
    },
    "version": 1
  },
  "userdoc": {
    "kind": "user",
    "methods": {},
    "version": 1
  }
}